:0306C0000205121E
:0A06A2003F065B4F666D7D077F6F1A
:0D066100007F047ECD7DBBDDFEDEFCDFFAF8
:01066E002269
:0306C30002062A02
:10062A00EF4E600F7D027CEFDCFEDDFCEF1F70F009
:03063A001E80ED32
:01063D00229A
:060316008F088C098D0A1E
:10031C00780B7C007D007BFF7A0679A27E007F0A39
:10032C001200D3E50814B40800505490034575F03E
:10033C0003A4C58325F0C5837302035D0203610228
:10034C00036502036902036D02037502037D020358
:10035C0085D2A4800ED2A48012D2A48016D2A480FE
:10036C001AC2A4D2A3D2A28016C2A4D2A3C2A280C3
:10037C000EC2A4C2A3D2A28006C2A4C2A3C2A274FB
:10038C000B250AF8E6F5807F017E001206C3E4F522
:01039C0080E0
:01039D00223D
:0B0697004D61747269784B65793A0080
:0E066F0075A0FE12066175A0FF12066180F2F2
:1004E00075A0FE12066175A0FD12066175A0FB12D3
:1004F000066175A0F712066175A0EF12066175A07E
:10050000DF12066175A0BF12066175A07F12066139
:0205100080CE9B
:0E067D0030B10320B004C2A080F6D2A080F2FB
:1005FC0020B1FD7F147E001206C330B1FD7F147E46
:08060C00001206C3B2A080E851
:10058400E4F53220B1FD7F147E001206C330B1FDC4
:100594007F147E001206C30532E532F4F5A080E331
:10039E0075A0FE20B12D7F147E001206C330B1FD74
:1003AE007F147E001206C30533E533C39408400361
:1003BE00E4F533AF337401A807088002C333D8FCC9
:1003CE00F4F5A020B0CD7F147E001206C330B0FD30
:1003DE007F147E001206C3E5337005753307800265
:1003EE001533AF337401A807088002C333D8FCF469
:0403FE00F5A0809F47
:1005C2007D017C007F011203167D027C007F0212F6
:0D05D20003167D037C007F0312031680E3F7
:10053A00E4F530F53112063E0531E5317002053039
:10054A007FE87E031206C3751A03AB31AA307D0118
:07055A007F011205DF80E1C3
:1005120012063E7BFF7A0679977D017F0112056103
:1005220012018D8F15E51560F7FB7A00751A027DB1
:08053200017F021205DF80E8E1
:06065200C2A58F80D2A7B3
:080658007F027EEFDEFEDFFCF5
:010660002277
:0A06AC00C2A6120652C2A7020658A9
:1005A400CFCDCFCECCCE1201387C007D0A120138DB
:0405B400ED2430FF03
:0A05B800D2A6120652C2A70206588E
:10061400AE07BE0104ED148006BE0209ED243F447A
:0606240080FF1206AC226B
:10063E007F381206AC7F0C1206AC7F061206AC7F1A
:04064E00010206ACF3
:0A06B600AC03120614AF040205B8ED
:060561008B168A178918B1
:10056700120614E4FDAB16AA17A9188D827583002D
:0C0577001200F9FF60061205B80D80E9C3
:010583002255
:0C04AD007F0AEA24FFFDE434FFFC7E001F
:0804B9008E1B8F1C8C1D8D1E93
:1004C1007F017E00E4FBEBC3951EE51D6480F8749B
:0E04D1008098500AAC1BAD1C1201260B80E86F
:0104DF0022FA
:0405DF008A188B19D2
:1005E300120614AA1AEAD39400400D1204ADAC18F3
:0805F300AD191205A41A80EDF8
:0105FB0022DD
:10040200120614C3EA64809480400B7F2B1205B855
:100412008A248B25800E7F2D1205B8C3E49BF52517
:10042200E49AF524AA23EAD39400400D1204ADAC59
:0904320024AD251205A41A80ED89
:01043B00229E
:04043C008A288B2956
:10044000120614AA2AEAD3940040297F101204AF9E
:10045000AC28AD29CFCDCFCECCCE120138EF540F82
:10046000FEC3940AEE5004243080022437FF1205A4
:04047000B81A80D165
:010474002265
:040475008A2D8B2E13
:10047900120614AA2FEAD394004028EA24FFFDE4C7
:1004890034FFFC7F027E001204B9AC2DAD2ECFCD16
:10049900CFCECCCE120138EF54012430FF1205B86B
:0304A9001A80D2E4
:0104AC00222D
:10018D00E4F5167590FFC2932097137F14FE1206A7
:10019D00C33097FD7F147E001206C375160120969D
:1001AD00147F147E001206C33096FD7F147E00125C
:1001BD0006C37516052095147F147E001206C330F4
:1001CD0095FD7F147E001206C37516092094147FC9
:1001DD00147E001206C33094FD7F147E001206C3F8
:1001ED0075160D7590FFC2922097147F147E001224
:1001FD0006C33097FD7F147E001206C375160220CC
:10020D0096147F147E001206C33096FD7F147E0077
:10021D001206C37516062095147F147E001206C3B0
:10022D003095FD7F147E001206C375160A209414B6
:10023D007F147E001206C33094FD7F147E001206DB
:10024D00C375160E7590FFC2912097147F147E0012
:10025D001206C33097FD7F147E001206C375160378
:10026D002096147F147E001206C33096FD7F147EF7
:10027D00001206C37516072095147F147E00120612
:10028D00C33095FD7F147E001206C375160B2094A6
:10029D00147F147E001206C33094FD7F147E00126D
:1002AD0006C375160F7590FFC2902097147F147EAC
:1002BD00001206C33097FD7F147E001206C375161B
:1002CD00042096147F147E001206C33096FD7F1411
:1002DD007E001206C37516082095147F147E001239
:1002ED0006C33095FD7F147E001206C375160C20D3
:1002FD0094147F147E001206C33094FD7F147E008B
:08030D001206C3751610AF16AD
:0103150022C5
:0300000002068B6A
:0C068B00787FE4F6D8FD7581330206C0CC
:10000300E709F608DFFA8046E709F208DFFA803EDF
:1000130088828C83E709F0A3DFFA8032E309F608CC
:10002300DFFA8078E309F208DFFA807088828C8334
:10003300E309F0A3DFFA806489828A83E0A3F608E8
:10004300DFFA805889828A83E0A3F208DFFA804CC2
:1000530080D280FA80C680D4806980F28033801099
:1000630080A680EA809A80A880DA80E280CA803302
:1000730089828A83ECFAE493A3C8C582C8CCC5837A
:10008300CCF0A3C8C582C8CCC583CCDFE9DEE7804A
:100093000D89828A83E493A3F608DFF9ECFAA9F0C9
:1000A300EDFB2289828A83ECFAE0A3C8C582C8CC1F
:1000B300C583CCF0A3C8C582C8CCC583CCDFEADE38
:1000C300E880DB89828A83E493A3F208DFF980CC9A
:1000D30088F0EF60010E4E60C388F0ED2402B40493
:1000E3000050B9F582EB2402B4040050AF2323453A
:0600F3008223900053730C
:1000F900BB010CE58229F582E5833AF583E02250BC
:1001090006E92582F8E622BBFE06E92582F8E22205
:0D011900E58229F582E5833AF583E493221F
:10012600EF8DF0A4A8F0CF8CF0A428CE8DF0A42EED
:02013600FE22A7
:10013800BC000BBE0029EF8DF084FFADF022E4CCAB
:10014800F875F008EF2FFFEE33FEEC33FCEE9DEC74
:10015800984005FCEE9DFE0FD5F0E9E4CEFD22EDBA
:10016800F8F5F0EE8420D21CFEADF075F008EF2F04
:10017800FFED33FD4007985006D5F0F222C398FDF5
:050188000FD5F0EA2292
:00000001FF
