:0305040002038966
:0A04E6003F065B4F666D7D077F6FD8
:0D04B000007F047ECD7DBBDDFEDEFCDFFAAB
:0104BD00221C
:0305070002047972
:10047900EF4E600F7D027CEFDCFEDDFCEF1F70F0BC
:030489001E80EDE5
:01048C00224D
:06018D008F088C098D0AA9
:10019300780B7C007D007BFF7A0479E67E007F0A82
:1001A3001200D3E50814B4080050549001BC75F054
:1001B30003A4C58325F0C583730201D40201D802C9
:1001C30001DC0201E00201E40201EC0201F402019C
:1001D300FCD2A4800ED2A48012D2A48016D2A48012
:1001E3001AC2A4D2A3D2A28016C2A4D2A3C2A2804E
:1001F3000EC2A4C2A3D2A28006C2A4C2A3C2A27486
:100203000B250AF8E6F5807F017E00120507E4F569
:01021300806A
:0102140022C7
:0E04BE0075A0FE1204B075A0FF1204B080F20B
:1003570075A0FE1204B075A0FD1204B075A0FB12C3
:1003670004B075A0F71204B075A0EF1204B075A021
:10037700DF1204B075A0BF1204B075A07F1204B0DD
:0203870080CE26
:0E04CC0030B10320B004C2A080F6D2A080F2AE
:10044B0020B1FD7F147E0012050730B1FD7F147EB5
:08045B0000120507B2A080E8C1
:1003D300E4F53420B1FD7F147E0012050730B1FD32
:1003E3007F147E001205070534E534F4F5A080E39D
:1002150075A0FE20B12D7F147E0012050730B1FDBB
:100225007F147E001205070535E535C394084003A4
:10023500E4F535AF357401A807088002C333D8FC4F
:10024500F4F5A020B0CD7F147E0012050730B0FD77
:100255007F147E00120507E53570057535078002A8
:100265001535AF357401A807088002C333D8FCF4EF
:04027500F5A0809FD1
:100411007D017C007F0112018D7D027C007F021233
:0D042100018D7D037C007F0312018D80E3BF
:10038900E4F515F51612048D0516E5167002051526
:100399007FE87E03120507751B03AB16AA157D01BD
:0703A9007F0112042E80E128
:0604A100C2A58F80D2A766
:0804A7007F027EEFDEFEDFFCA8
:0104AF00222A
:0A04F000C2A61204A1C2A70204A7CD
:1003F300CFCDCFCECCCE1201387C007D0A1201388E
:04040300ED2430FFB5
:0A040700D2A61204A1C2A70204A7A6
:10046300AE07BE0104ED148006BE0209ED243F442D
:0604730080FF1204F022DC
:10048D007F381204F07F0C1204F07F061204F07F07
:04049D00010204F064
:0A04FA00AC03120463AF0402040710
:0603B0008B318A32893313
:1003B600120463E4FDAB31AA32A9338D8275830042
:0C03C6001200F9FF60061204070D80E928
:0103D2002208
:0C0324007F0AEA24FFFDE434FFFC7E00A9
:080330008E1C8F1D8C1E8D1F19
:100338007F017E00E4FBEBC3951FE51E6480F87423
:0E0348008098500AAC1CAD1D1201260B80E8F7
:010356002284
:04042E008A198B1A82
:10043200120463AA1BEAD39400400D120324AC19E0
:08044200AD1A1203F31A80ED5C
:01044A00228F
:10027900120463C3EA64809480400B7F2B12040745
:100289008A258B26800E7F2D120407C3E49BF52651
:10029900E49AF525AA24EAD39400400D120324AC6C
:0902A90025AD261203F31A80EDC5
:0102B2002229
:0402B3008A298B2ADF
:1002B700120463AA2BEAD3940040297F1012032665
:1002C700AC29AD2ACFCDCFCECCCE120138EF540F0B
:1002D700FEC3940AEE5004243080022437FF120430
:0402E700071A80D1A1
:0102EB0022F0
:0402EC008A2E8B2F9C
:1002F000120463AA30EAD394004028EA24FFFDE404
:1003000034FFFC7F027E00120330AC2EAD2FCFCD28
:10031000CFCECCCE120138EF54012430FF120407A7
:030320001A80D26E
:0103230022B7
:030000000204DA1D
:0C04DA00787FE4F6D8FD7581350205043A
:10000300E709F608DFFA8046E709F208DFFA803EDF
:1000130088828C83E709F0A3DFFA8032E309F608CC
:10002300DFFA8078E309F208DFFA807088828C8334
:10003300E309F0A3DFFA806489828A83E0A3F608E8
:10004300DFFA805889828A83E0A3F208DFFA804CC2
:1000530080D280FA80C680D4806980F28033801099
:1000630080A680EA809A80A880DA80E280CA803302
:1000730089828A83ECFAE493A3C8C582C8CCC5837A
:10008300CCF0A3C8C582C8CCC583CCDFE9DEE7804A
:100093000D89828A83E493A3F608DFF9ECFAA9F0C9
:1000A300EDFB2289828A83ECFAE0A3C8C582C8CC1F
:1000B300C583CCF0A3C8C582C8CCC583CCDFEADE38
:1000C300E880DB89828A83E493A3F208DFF980CC9A
:1000D30088F0EF60010E4E60C388F0ED2402B40493
:1000E3000050B9F582EB2402B4040050AF2323453A
:0600F3008223900053730C
:1000F900BB010CE58229F582E5833AF583E02250BC
:1001090006E92582F8E622BBFE06E92582F8E22205
:0D011900E58229F582E5833AF583E493221F
:10012600EF8DF0A4A8F0CF8CF0A428CE8DF0A42EED
:02013600FE22A7
:10013800BC000BBE0029EF8DF084FFADF022E4CCAB
:10014800F875F008EF2FFFEE33FEEC33FCEE9DEC74
:10015800984005FCEE9DFE0FD5F0E9E4CEFD22EDBA
:10016800F8F5F0EE8420D21CFEADF075F008EF2F04
:10017800FFED33FD4007985006D5F0F222C398FDF5
:050188000FD5F0EA2292
:00000001FF
