:03078F000203164C
:0A0771003F065B4F666D7D077F6F4A
:0D073B00007F047ECD7DBBDDFEDEFCDFFA1D
:01074800228E
:0307920002070457
:10070400EF4E600F7D027CEFDCFEDDFCEF1F70F02E
:030714001E80ED57
:0107170022BF
:0603D3008F168C178D1837
:1003D90078197C007D007BFF7A0779717E007F0A9E
:1003E9001200D3E51614B40800505490040275F0B5
:1003F90003A4C58325F0C5837302041A02041E02EF
:10040900042202042602042A02043202043A0204E3
:1004190042D2A4800ED2A48012D2A48016D2A48083
:100429001AC2A4D2A3D2A28016C2A4D2A3C2A28005
:100439000EC2A4C2A3D2A28006C2A4C2A3C2A2743D
:10044900192518F8E6F5807F017E00120792E4F578
:010459008022
:01045A00227F
:10069C004D61747269784B65793A00506173737768
:0D06AC006F72643A004F4B2000455252001F
:0E07490075A0FE12073B75A0FF12073B80F261
:10059D0075A0FE12073B75A0FD12073B75A0FB125F
:1005AD00073B75A0F712073B75A0EF12073B75A02F
:1005BD00DF12073B75A0BF12073B75A07F12073BEB
:0205CD0080CEDE
:0E07570030B10320B004C2A080F6D2A080F220
:1006D60020B1FD7F147E0012079230B1FD7F147E9B
:0806E60000120792B2A080E8A7
:10064100E4F53620B1FD7F147E0012079230B1FD32
:100651007F147E001207920536E536F4F5A080E39B
:10045B0075A0FE20B12D7F147E0012079230B1FDE6
:10046B007F147E001207920537E537C394084003CB
:10047B00E4F537AF377401A807088002C333D8FC03
:10048B00F4F5A020B0CD7F147E0012079230B0FDA2
:10049B007F147E00120792E53770057537078002CF
:1004AB001537AF377401A807088002C333D8FCF4A3
:0404BB00F5A0809F89
:10067F007D017C007F011203D37D027C007F02127B
:0D068F0003D37D037C007F031203D380E3BF
:1005F700E4F534F5351207180535E535700205348D
:100607007FE87E03120792751103AB35AA347D018B
:070617007F011206B980E12A
:1005CF001207187BFF7A06799C7D017F0112061EA8
:1005DF0012018D8F38E53860F7FB7A007511027DB7
:0805EF00017F021206B980E849
:100316001207187BFF7A0679A77D017F0112061E58
:1003260012018D8F08E50860F7D3940A5041C3E5A2
:100336000C9404E50B94005028AE09AF0A7C007DAE
:100346000A1201268E098F0AE50875F00A84E5F07F
:10035600250AF50AE43509F509050CE50C700205D0
:100366000B751104AB0AAA097D017F021206B9E5D5
:1003760008640B7036E50AB4290DE509B409087B53
:10038600FF7A0679B180067BFF7A0679B57D0E7F06
:100396000112061EE4F509F50AF50BF50C751104B4
:1003A600AB0AAA097D017F021206B9E508640C6052
:1003B60003020326F509F50AF50BF50C751104ABD6
:0D03C6000AAA097D017F021206B902032672
:06072C00C2A58F80D2A7D8
:080732007F027EEFDEFEDFFC1A
:01073A00229C
:0A077B00C2A612072CC2A702073223
:10066100CFCDCFCECCCE1201387C007D0A1201381D
:04067100ED2430FF45
:0A067500D2A612072CC2A70207321A
:1006EE00AE07BE0104ED148006BE0209ED243F44A0
:0606FE0080FF12077B22C1
:100718007F3812077B7F0C12077B7F0612077B7FCF
:040728000102077B48
:0A078500AC031206EEAF0402067585
:06061E008B0D8A0E890F0E
:100624001206EEE4FDAB0DAA0EA90F8D82758300B0
:0C0634001200F9FF60061206750D80E947
:010640002297
:0C056A007F0AEA24FFFDE434FFFC7E0061
:080576008E128F138C148D15F9
:10057E007F017E00E4FBEBC39515E5146480F874EF
:0E058E008098500AAC12AD131201260B80E8C3
:01059C00223C
:0406B9008A0F8B1009
:1006BD001206EEAA11EAD39400400D12056AAC0F92
:0806CD00AD101206611A80ED68
:0106D5002202
:1004BF001206EEC3EA64809480400B7F2B12067500
:1004CF008A288B29800E7F2D120675C3E49BF52990
:1004DF00E49AF528AA27EAD39400400D12056AACD6
:0904EF0028AD291206611A80ED06
:0104F80022E1
:0404F9008A2C8B2D91
:1004FD001206EEAA2EEAD3940040297F1012056C45
:10050D00AC2CAD2DCFCDCFCECCCE120138EF540FBC
:10051D00FEC3940AEE5004243080022437FF1206E5
:04052D00751A80D1EA
:0105310022A7
:040532008A318B324D
:100536001206EEAA33EAD394004028EA24FFFDE42B
:1005460034FFFC7F027E00120576AC31AD32CFCD92
:10055600CFCECCCE120138EF54012430FF120675EF
:030566001A80D226
:01056900226F
:10018D00E4F50D7590FFC2932097137F14FE1207AF
:10019D00923097FD7F147E00120792750D01209607
:1001AD00147F147E001207923096FD7F147E00128C
:1001BD000792750D052095147F147E00120792305D
:1001CD0095FD7F147E00120792750D092094147F02
:1001DD00147E001207923094FD7F147E0012079258
:1001ED00750D0D7590FFC2922097147F147E00122D
:1001FD0007923097FD7F147E00120792750D022035
:10020D0096147F147E001207923096FD7F147E00A7
:10021D00120792750D062095147F147E0012079219
:10022D003095FD7F147E00120792750D0A209414EF
:10023D007F147E001207923094FD7F147E0012070A
:10024D0092750D0E7590FFC2912097147F147E004C
:10025D001207923097FD7F147E00120792750D03E1
:10026D002096147F147E001207923096FD7F147E27
:10027D0000120792750D072095147F147E0012074A
:10028D00923095FD7F147E00120792750D0B209410
:10029D00147F147E001207923094FD7F147E00129D
:1002AD000792750D0F7590FFC2902097147F147EE5
:1002BD00001207923097FD7F147E00120792750D84
:1002CD00042096147F147E001207923096FD7F1441
:1002DD007E00120792750D082095147F147E001272
:1002ED0007923095FD7F147E00120792750D0C203C
:1002FD0094147F147E001207923094FD7F147E00BB
:08030D00120792750D10AF0DEF
:0103150022C5
:030000000207658F
:0C076500787FE4F6D8FD75813802078F1C
:10000300E709F608DFFA8046E709F208DFFA803EDF
:1000130088828C83E709F0A3DFFA8032E309F608CC
:10002300DFFA8078E309F208DFFA807088828C8334
:10003300E309F0A3DFFA806489828A83E0A3F608E8
:10004300DFFA805889828A83E0A3F208DFFA804CC2
:1000530080D280FA80C680D4806980F28033801099
:1000630080A680EA809A80A880DA80E280CA803302
:1000730089828A83ECFAE493A3C8C582C8CCC5837A
:10008300CCF0A3C8C582C8CCC583CCDFE9DEE7804A
:100093000D89828A83E493A3F608DFF9ECFAA9F0C9
:1000A300EDFB2289828A83ECFAE0A3C8C582C8CC1F
:1000B300C583CCF0A3C8C582C8CCC583CCDFEADE38
:1000C300E880DB89828A83E493A3F208DFF980CC9A
:1000D30088F0EF60010E4E60C388F0ED2402B40493
:1000E3000050B9F582EB2402B4040050AF2323453A
:0600F3008223900053730C
:1000F900BB010CE58229F582E5833AF583E02250BC
:1001090006E92582F8E622BBFE06E92582F8E22205
:0D011900E58229F582E5833AF583E493221F
:10012600EF8DF0A4A8F0CF8CF0A428CE8DF0A42EED
:02013600FE22A7
:10013800BC000BBE0029EF8DF084FFADF022E4CCAB
:10014800F875F008EF2FFFEE33FEEC33FCEE9DEC74
:10015800984005FCEE9DFE0FD5F0E9E4CEFD22EDBA
:10016800F8F5F0EE8420D21CFEADF075F008EF2F04
:10017800FFED33FD4007985006D5F0F222C398FDF5
:050188000FD5F0EA2292
:00000001FF
