:0302C00002023700
:0A02B6003F065B4F666D7D077F6F0A
:0D028000007F047ECD7DBBDDFEDEFCDFFADD
:01028D00224E
:0302C30002026CC8
:10026C00EF4E600F7D027CEFDCFEDDFCEF1F70F0CB
:03027C001E80EDF4
:01027F00225C
:0600F9008F088C098D0A3E
:1000FF00780B7C007D007BFF7A0279B67E007F0A49
:10010F001200D3E50814B40800505490012875F07C
:10011F0003A4C58325F0C583730201400201440285
:10012F00014802014C020150020158020160020114
:10013F0068D2A4800ED2A48012D2A48016D2A4803A
:10014F001AC2A4D2A3D2A28016C2A4D2A3C2A280E2
:10015F000EC2A4C2A3D2A28006C2A4C2A3C2A2741A
:10016F000B250AF8E6F5807F017E001202C3E4F545
:01017F0080FF
:01018000225C
:0E028E0075A0FE12028075A0FF12028080F2A1
:1001E50075A0FE12028075A0FD12028075A0FB129B
:1001F500028075A0F712028075A0EF12028075A02B
:10020500DF12028075A0BF12028075A07F120280E6
:0202150080CE99
:0E029C0030B10320B004C2A080F6D2A080F2E0
:1002540020B1FD7F147E001202C330B1FD7F147EF5
:08026400001202C3B2A080E801
:10021700E4F51520B1FD7F147E001202C330B1FD55
:100227007F147E001202C30515E515F4F5A080E3DF
:1001810075A0FE20B12D7F147E001202C330B1FD97
:100191007F147E001202C30516E516C394084003BE
:1001A100E4F516AF167401A807088002C333D8FC22
:1001B100F4F5A020B0CD7F147E001202C330B0FD53
:1001C1007F147E001202C3E51670057516078002C2
:1001D1001516AF167401A807088002C333D8FCF4C2
:0401E100F5A0809F66
:100237007D017C007F011200F97D027C007F0212A4
:0D02470000F97D037C007F031200F980E3C5
:030000000202AA4F
:0C02AA00787FE4F6D8FD7581160202C0D2
:10000300E709F608DFFA8046E709F208DFFA803EDF
:1000130088828C83E709F0A3DFFA8032E309F608CC
:10002300DFFA8078E309F208DFFA807088828C8334
:10003300E309F0A3DFFA806489828A83E0A3F608E8
:10004300DFFA805889828A83E0A3F208DFFA804CC2
:1000530080D280FA80C680D4806980F28033801099
:1000630080A680EA809A80A880DA80E280CA803302
:1000730089828A83ECFAE493A3C8C582C8CCC5837A
:10008300CCF0A3C8C582C8CCC583CCDFE9DEE7804A
:100093000D89828A83E493A3F608DFF9ECFAA9F0C9
:1000A300EDFB2289828A83ECFAE0A3C8C582C8CC1F
:1000B300C583CCF0A3C8C582C8CCC583CCDFEADE38
:1000C300E880DB89828A83E493A3F208DFF980CC9A
:1000D30088F0EF60010E4E60C388F0ED2402B40493
:1000E3000050B9F582EB2402B4040050AF2323453A
:0600F3008223900053730C
:00000001FF
